{
  "contractName": "OneClick",
  "abi": [
    {
      "inputs": [
        {
          "internalType": "address",
          "name": "_forwarder",
          "type": "address"
        }
      ],
      "stateMutability": "nonpayable",
      "type": "constructor"
    },
    {
      "anonymous": false,
      "inputs": [
        {
          "indexed": true,
          "internalType": "address",
          "name": "_clicker",
          "type": "address"
        },
        {
          "indexed": false,
          "internalType": "uint256",
          "name": "_numberOfClicks",
          "type": "uint256"
        }
      ],
      "name": "Click",
      "type": "event"
    },
    {
      "inputs": [
        {
          "internalType": "address",
          "name": "forwarder",
          "type": "address"
        }
      ],
      "name": "isTrustedForwarder",
      "outputs": [
        {
          "internalType": "bool",
          "name": "",
          "type": "bool"
        }
      ],
      "stateMutability": "view",
      "type": "function"
    },
    {
      "inputs": [],
      "name": "numberOfClicks",
      "outputs": [
        {
          "internalType": "uint256",
          "name": "",
          "type": "uint256"
        }
      ],
      "stateMutability": "view",
      "type": "function"
    },
    {
      "inputs": [],
      "name": "owner",
      "outputs": [
        {
          "internalType": "address",
          "name": "",
          "type": "address"
        }
      ],
      "stateMutability": "view",
      "type": "function"
    },
    {
      "inputs": [],
      "name": "trustedForwarder",
      "outputs": [
        {
          "internalType": "address",
          "name": "",
          "type": "address"
        }
      ],
      "stateMutability": "view",
      "type": "function"
    },
    {
      "inputs": [],
      "name": "versionRecipient",
      "outputs": [
        {
          "internalType": "string",
          "name": "",
          "type": "string"
        }
      ],
      "stateMutability": "view",
      "type": "function"
    },
    {
      "inputs": [
        {
          "internalType": "address",
          "name": "_forwarder",
          "type": "address"
        }
      ],
      "name": "setForwarder",
      "outputs": [],
      "stateMutability": "nonpayable",
      "type": "function"
    },
    {
      "inputs": [],
      "name": "click",
      "outputs": [],
      "stateMutability": "nonpayable",
      "type": "function"
    }
  ],
  "bytecode": "0x60c060405260056080819052640322e302e360dc1b60a0908152610026916001919061008a565b5034801561003357600080fd5b506040516106b93803806106b98339818101604052602081101561005657600080fd5b505160028054336001600160a01b031991821617909155600080549091166001600160a01b03909216919091179055610125565b828054600181600116156101000203166002900490600052602060002090601f016020900481019282601f106100cb57805160ff19168380011785556100f8565b828001600101855582156100f8579182015b828111156100f85782518255916020019190600101906100dd565b50610104929150610108565b5090565b61012291905b80821115610104576000815560010161010e565b90565b610585806101346000396000f3fe608060405234801561001057600080fd5b506004361061007d5760003560e01c80637da0a8771161005b5780637da0a877146101505780638da5cb5b14610181578063b9998a2414610189578063bbe27934146101bc5761007d565b8063486ff0cd14610082578063572b6c05146100ff5780637d55923d14610146575b600080fd5b61008a6101d6565b6040805160208082528351818301528351919283929083019185019080838360005b838110156100c45781810151838201526020016100ac565b50505050905090810190601f1680156100f15780820380516001836020036101000a031916815260200191505b509250505060405180910390f35b6101326004803603602081101561011557600080fd5b503573ffffffffffffffffffffffffffffffffffffffff16610281565b604080519115158252519081900360200190f35b61014e6102a2565b005b6101586103d8565b6040805173ffffffffffffffffffffffffffffffffffffffff9092168252519081900360200190f35b6101586103f4565b61014e6004803603602081101561019f57600080fd5b503573ffffffffffffffffffffffffffffffffffffffff16610410565b6101c46104fa565b60408051918252519081900360200190f35b60018054604080516020600284861615610100027fffffffffffffffffffffffffffffffffffffffffffffffffffffffffffffffff0190941693909304601f810184900484028201840190925281815292918301828280156102795780601f1061024e57610100808354040283529160200191610279565b820191906000526020600020905b81548152906001019060200180831161025c57829003601f168201915b505050505081565b60005473ffffffffffffffffffffffffffffffffffffffff90811691161490565b60006102ac610500565b73ffffffffffffffffffffffffffffffffffffffff811660009081526004602052604090205490915060ff161561034457604080517f08c379a000000000000000000000000000000000000000000000000000000000815260206004820152601860248201527f557365722068617320616c726561647920636c69636b65640000000000000000604482015290519081900360640190fd5b73ffffffffffffffffffffffffffffffffffffffff811660008181526004602090815260409182902080547fffffffffffffffffffffffffffffffffffffffffffffffffffffffffffffff001660019081179091556003805490910190819055825190815291517f9cb0084f66100232b6cdcee6915499fbfb0cd080317c9488bd71880f8cdb91dc9281900390910190a250565b60005473ffffffffffffffffffffffffffffffffffffffff1681565b60025473ffffffffffffffffffffffffffffffffffffffff1681565b60025473ffffffffffffffffffffffffffffffffffffffff16610431610500565b73ffffffffffffffffffffffffffffffffffffffff16146104b357604080517f08c379a000000000000000000000000000000000000000000000000000000000815260206004820152601760248201527f53656e646572206973206e6f7420746865206f776e6572000000000000000000604482015290519081900360640190fd5b600080547fffffffffffffffffffffffff00000000000000000000000000000000000000001673ffffffffffffffffffffffffffffffffffffffff92909216919091179055565b60035481565b600060183610801590610517575061051733610281565b1561054957507fffffffffffffffffffffffffffffffffffffffffffffffffffffffffffffffec36013560601c61054c565b50335b9056fea26469706673582212206185c77768b539939b7b90b7393b363a9040893e819fd51f8ba8176a9f2e40f364736f6c63430006060033",
  "immutableReferences": {},
  "source": "pragma solidity 0.6.6;\nimport \"@opengsn/gsn/contracts/BaseRelayRecipient.sol\";\n\n// SPDX-License-Identifier: MIT\n\ncontract OneClick is BaseRelayRecipient {\n    string public override versionRecipient = \"2.0.0\";\n    address public owner;\n    uint256 public numberOfClicks; \n    mapping (address => bool) hasClicked;\n    \n    event Click(address indexed _clicker, uint256 _numberOfClicks);\n    \n    constructor(address _forwarder) public {\n        owner = msg.sender;\n        trustedForwarder = _forwarder;\n    }\n\n    function setForwarder(address _forwarder) external {\n        require(_msgSender() == owner, \"Sender is not the owner\");\n        trustedForwarder = _forwarder;\n    }\n    \n    function click() external {\n        address _sender = _msgSender();\n        require(!hasClicked[_sender], \"User has already clicked\");\n        hasClicked[_sender] = true;\n        numberOfClicks++;\n        emit Click(_sender, numberOfClicks);\n    }\n}\n",
  "sourcePath": "/Users/hakeemorewole/projects/1aa/multisend/deployer/contracts/OneClick/OneClick.sol",
  "compiler": {
    "name": "solc",
    "version": "0.6.6+commit.6c089d02.Emscripten.clang"
  },
  "schemaVersion": "3.2.3",
  "updatedAt": "2021-04-14T09:02:01.715Z",
  "devdoc": {
    "methods": {}
  },
  "userdoc": {
    "methods": {}
  }
}